{
  "address": "0x5FbDB2315678afecb367f032d93F642f64180aa3",
  "abi": [
    {
      "inputs": [
        {
          "internalType": "uint256",
          "name": "",
          "type": "uint256"
        }
      ],
      "name": "cmtnos",
      "outputs": [
        {
          "internalType": "uint256",
          "name": "",
          "type": "uint256"
        }
      ],
      "stateMutability": "view",
      "type": "function"
    },
    {
      "inputs": [
        {
          "internalType": "uint256",
          "name": "",
          "type": "uint256"
        }
      ],
      "name": "comment",
      "outputs": [
        {
          "internalType": "string",
          "name": "",
          "type": "string"
        }
      ],
      "stateMutability": "view",
      "type": "function"
    },
    {
      "inputs": [
        {
          "internalType": "uint256",
          "name": "postno",
          "type": "uint256"
        },
        {
          "internalType": "string",
          "name": "cmdData",
          "type": "string"
        }
      ],
      "name": "commentplus",
      "outputs": [],
      "stateMutability": "nonpayable",
      "type": "function"
    },
    {
      "inputs": [
        {
          "internalType": "uint256",
          "name": "",
          "type": "uint256"
        }
      ],
      "name": "like",
      "outputs": [
        {
          "internalType": "uint256",
          "name": "",
          "type": "uint256"
        }
      ],
      "stateMutability": "view",
      "type": "function"
    },
    {
      "inputs": [
        {
          "internalType": "uint256",
          "name": "postno",
          "type": "uint256"
        }
      ],
      "name": "likeplus",
      "outputs": [],
      "stateMutability": "nonpayable",
      "type": "function"
    }
  ],
  "transactionHash": "0xcfc8f7c4d2160e6f66fc4fd3d1c8926068f1b8c68017b764f037d025c8fb7de7",
  "args": [],
  "numDeployments": 1,
  "solcInputHash": "e064ce1827be1c8203291f675ff395fc",
  "bytecode": "0x608060405234801561001057600080fd5b50610723806100206000396000f3fe608060405234801561001057600080fd5b50600436106100565760003560e01c8062981cc91461005b5780631301f34e1461008b57806336ffdea0146100a75780634edf5f5b146100c3578063e82935da146100f3575b600080fd5b61007560048036038101906100709190610364565b610123565b604051610082919061042a565b60405180910390f35b6100a560048036038101906100a09190610581565b6101c3565b005b6100c160048036038101906100bc9190610364565b61021a565b005b6100dd60048036038101906100d89190610364565b610247565b6040516100ea91906105ec565b60405180910390f35b61010d60048036038101906101089190610364565b61025f565b60405161011a91906105ec565b60405180910390f35b6001602052806000526040600020600091509050805461014290610636565b80601f016020809104026020016040519081016040528092919081815260200182805461016e90610636565b80156101bb5780601f10610190576101008083540402835291602001916101bb565b820191906000526020600020905b81548152906001019060200180831161019e57829003601f168201915b505050505081565b806001600084815260200190815260200160002090805190602001906101ea929190610277565b50600160026000848152602001908152602001600020600082825461020f9190610697565b925050819055505050565b6001600080838152602001908152602001600020600082825461023d9190610697565b9250508190555050565b60026020528060005260406000206000915090505481565b60006020528060005260406000206000915090505481565b82805461028390610636565b90600052602060002090601f0160209004810192826102a557600085556102ec565b82601f106102be57805160ff19168380011785556102ec565b828001600101855582156102ec579182015b828111156102eb5782518255916020019190600101906102d0565b5b5090506102f991906102fd565b5090565b5b808211156103165760008160009055506001016102fe565b5090565b6000604051905090565b600080fd5b600080fd5b6000819050919050565b6103418161032e565b811461034c57600080fd5b50565b60008135905061035e81610338565b92915050565b60006020828403121561037a57610379610324565b5b60006103888482850161034f565b91505092915050565b600081519050919050565b600082825260208201905092915050565b60005b838110156103cb5780820151818401526020810190506103b0565b838111156103da576000848401525b50505050565b6000601f19601f8301169050919050565b60006103fc82610391565b610406818561039c565b93506104168185602086016103ad565b61041f816103e0565b840191505092915050565b6000602082019050818103600083015261044481846103f1565b905092915050565b600080fd5b600080fd5b7f4e487b7100000000000000000000000000000000000000000000000000000000600052604160045260246000fd5b61048e826103e0565b810181811067ffffffffffffffff821117156104ad576104ac610456565b5b80604052505050565b60006104c061031a565b90506104cc8282610485565b919050565b600067ffffffffffffffff8211156104ec576104eb610456565b5b6104f5826103e0565b9050602081019050919050565b82818337600083830152505050565b600061052461051f846104d1565b6104b6565b9050828152602081018484840111156105405761053f610451565b5b61054b848285610502565b509392505050565b600082601f8301126105685761056761044c565b5b8135610578848260208601610511565b91505092915050565b6000806040838503121561059857610597610324565b5b60006105a68582860161034f565b925050602083013567ffffffffffffffff8111156105c7576105c6610329565b5b6105d385828601610553565b9150509250929050565b6105e68161032e565b82525050565b600060208201905061060160008301846105dd565b92915050565b7f4e487b7100000000000000000000000000000000000000000000000000000000600052602260045260246000fd5b6000600282049050600182168061064e57607f821691505b6020821081141561066257610661610607565b5b50919050565b7f4e487b7100000000000000000000000000000000000000000000000000000000600052601160045260246000fd5b60006106a28261032e565b91506106ad8361032e565b9250827fffffffffffffffffffffffffffffffffffffffffffffffffffffffffffffffff038211156106e2576106e1610668565b5b82820190509291505056fea26469706673582212203342e9e0efba667c37821ad869650c1c246e0b8f4ae0f0eca0676d7657dbae9a64736f6c63430008080033",
  "devdoc": {
    "kind": "dev",
    "methods": {},
    "version": 1
  },
  "userdoc": {
    "kind": "user",
    "methods": {},
    "version": 1
  },
  "storageLayout": {
    "storage": [
      {
        "astId": 5,
        "contract": "contracts/NftMedia.sol:NftMedia",
        "label": "like",
        "offset": 0,
        "slot": "0",
        "type": "t_mapping(t_uint256,t_uint256)"
      },
      {
        "astId": 9,
        "contract": "contracts/NftMedia.sol:NftMedia",
        "label": "comment",
        "offset": 0,
        "slot": "1",
        "type": "t_mapping(t_uint256,t_string_storage)"
      },
      {
        "astId": 13,
        "contract": "contracts/NftMedia.sol:NftMedia",
        "label": "cmtnos",
        "offset": 0,
        "slot": "2",
        "type": "t_mapping(t_uint256,t_uint256)"
      }
    ],
    "types": {
      "t_mapping(t_uint256,t_string_storage)": {
        "encoding": "mapping",
        "key": "t_uint256",
        "label": "mapping(uint256 => string)",
        "numberOfBytes": "32",
        "value": "t_string_storage"
      },
      "t_mapping(t_uint256,t_uint256)": {
        "encoding": "mapping",
        "key": "t_uint256",
        "label": "mapping(uint256 => uint256)",
        "numberOfBytes": "32",
        "value": "t_uint256"
      },
      "t_string_storage": {
        "encoding": "bytes",
        "label": "string",
        "numberOfBytes": "32"
      },
      "t_uint256": {
        "encoding": "inplace",
        "label": "uint256",
        "numberOfBytes": "32"
      }
    }
  }
}